:0400000002001132B7
:03000B000200747C
:0A006A00E4F508F509F50A02000E9E
:03000E000200A647
:10007400C0E0C0D00508E4B508020509758C3C75DC
:100084008AB0740CB50806E4B509028002800EE556
:100094000AF4F50A24FF9292E4F508F509D0D0D0C9
:1000A400E032D2AFD28CD2A9758901758C3C758AA5
:0600B400B0C29280FE22A2
:06004000E478FFF6D8FD94
:10001E007900E94400601B7A009000BE780175A05B
:10002E0000E493F2A308B8000205A0D9F4DAF27541
:02003E00A0FF21
:100046007800E84400600A790175A000E4F309D855
:10005600FC7800E84400600C7900900001E4F0A30D
:04006600D8FCD9FAEF
:0D00110075810A1200BAE582600302000E3C
:0400BA007582002229
:00000001FF
