:20006200AE82AF837C007D00C3EC9EED9F50147A8C7B001ABAFF011BEA4B70F70CBC00E82A
:040082000D80E522E6
:03000000020006F5
:03005F0002000399
:0300030002008672
:13008600C2929001F4120062D2929001F412006280EE222D
:06003500E478FFF6D8FD9F
:200013007900E94400601B7A0090009D780175A000E493F2A308B8000205A0D9F4DAF275F6
:02003300A0FF2C
:20003B007800E84400600A790175A000E4F309D8FC7800E84400600C7900900001E4F0A3C3
:04005B00D8FCD9FAFA
:0D000600758107120099E582600302000376
:04009900758200224A
:00000001FF
