:0600000002000902006588
:0300620002000693
:030006000200B144
:10006500C020C0E0C0F0C082C083C007C006C00584
:10007500C004C003C002C001C000C0D075D000D20A
:10008500939001F41200CBC2939001F41200CBD0EF
:10009500D0D000D001D002D003D004D005D006D0F6
:1000A50007D083D082D0F0D0E0D02032D288D2A839
:1000B500D2AFC293C2929001F41200CBD2929001BA
:1000C500F41200CB80EEAE82AF837C007D00C3ECE2
:1000D5009EED9F50147A8C7B001ABAFF011BEA4BE8
:0A00E50070F70CBC00E80D80E52266
:06003800E478FFF6D8FD9C
:100016007900E94400601B7A009000F3780175A02E
:1000260000E493F2A308B8000205A0D9F4DAF27549
:02003600A0FF29
:10003E007800E84400600A790175A000E4F309D85D
:10004E00FC7800E84400600C7900900001E4F0A315
:04005E00D8FCD9FAF7
:0D0009007581201200EFE582600302000601
:0400EF0075820022F4
:00000001FF
