:03000000020006F5
:03005F0002000399
:0300030002006296
:20006200209304C2928002D29290003212007380EFAE82AF837C007D00C3EC9EED9F50143F
:150082007A8C7B001ABAFF011BEA4B70F70CBC00E80D80E52219
:06003500E478FFF6D8FD9F
:200013007900E94400601B7A0090009B780175A000E493F2A308B8000205A0D9F4DAF275F8
:02003300A0FF2C
:20003B007800E84400600A790175A000E4F309D8FC7800E84400600C7900900001E4F0A3C3
:04005B00D8FCD9FAFA
:0D000600758107120097E582600302000378
:04009700758200224C
:00000001FF
