:20006500AE82AF837C007D00C3EC9EED9F50147A8C7B001ABAFF011BEA4B70F70CBC00E827
:040085000D80E522E3
:0600000002000902008964
:0300620002000693
:030006000200D520
:20008900C020C0E0C0F0C082C083C007C006C005C004C003C002C001C000C0D075D000D2DF
:2000A900939001F4120065C2939001F4120065D0D0D000D001D002D003D004D005D006D022
:2000C90007D083D082D0F0D0E0D02032D288D2A8D2AFC293C2929001F4120065D2929001EA
:0700E900F412006580EE2215
:06003800E478FFF6D8FD9C
:200016007900E94400601B7A009000F4780175A000E493F2A308B8000205A0D9F4DAF2759C
:02003600A0FF29
:20003E007800E84400600A790175A000E4F309D8FC7800E84400600C7900900001E4F0A3C0
:04005E00D8FCD9FAF7
:0D0009007581201200F0E582600302000600
:0400F00075820022F3
:00000001FF
